:100000000C945A000C9477000C9477000C947700B1
:100010000C9477000C9477000C9477000C94770084
:100020000C9477000C9477000C94C2040C94770025
:100030000C9477000C9477000C9477000C94770064
:100040000C9477000C9477000C9477000C94770054
:100050000C9477000104150429043D04510465043F
:10006000F003F003F003F003F003F003F003F003F8
:10007000F003F003790483048D049704A104AB0416
:10008000F003F003F003F003F003F003F003F003D8
:10009000F003F0037E04880492049C04A604B204D6
:1000A000F003F003F003F003F003F003F003F003B8
:1000B000F003B90411241FBECFE5D8E0DEBFCDBFE9
:1000C00010E0A0E6B0E0E0E9FDE002C005900D928E
:1000D000A236B107D9F710E0A2E6B0E001C01D9248
:1000E000A636B107E1F70E94CA030C94C6060C9429
:1000F00000003E9A3F9A379A329A319A0895369A7A
:100100003699FECF349A84B190E045B1342F20E087
:10011000822B932B0895843409F471C0853448F4FC
:10012000823499F1833408F04DC0813409F083C0E2
:100130000FC0823651F1833620F4813609F07BC03E
:1001400007C0833609F43EC0843609F074C057C036
:10015000413069F42AB381E090E0AC0102C0440F61
:10016000551F6A95E2F7BA01622B6ABB08952AB35C
:1001700081E090E0AC0102C0440F551F6A95E2F7A0
:10018000BA01609562236ABB0895413069F427B3D0
:1001900081E090E0AC0102C0440F551F6A95E2F780
:1001A000BA01622B67BB089527B381E090E0AC01F0
:1001B00002C0440F551F6A95E2F7BA0160956223A9
:1001C00067BB0895413069F424B381E090E0AC014D
:1001D00002C0440F551F6A95E2F7BA01622B64BB57
:1001E000089524B381E090E0AC0102C0440F551F94
:1001F0006A95E2F7BA016095622364BB08954130C5
:1002000069F421B381E090E0AC0102C0440F551FB6
:100210006A95E2F7BA01622B61BB089521B381E0D0
:1002200090E0AC0102C0440F551F6A95E2F7BA0195
:100230006095622361BB0895843409F471C08534EC
:1002400048F4823499F1833408F04DC0813409F0C8
:1002500083C00FC0823651F1833620F4813609F015
:100260007BC007C0833609F43EC0843609F074C0F1
:1002700057C0413069F42BB381E090E0AC0102C07B
:10028000440F551F6A95E2F7BA01622B6BBB0895C4
:100290002BB381E090E0AC0102C0440F551F6A957A
:1002A000E2F7BA01609562236BBB0895413069F4AF
:1002B00028B381E090E0AC0102C0440F551F6A955D
:1002C000E2F7BA01622B68BB089528B381E090E0A1
:1002D000AC0102C0440F551F6A95E2F7BA01609560
:1002E000622368BB0895413069F425B381E090E052
:1002F000AC0102C0440F551F6A95E2F7BA01622BA8
:1003000065BB089525B381E090E0AC0102C0440FC5
:10031000551F6A95E2F7BA016095622365BB08959F
:10032000413069F422B381E090E0AC0102C0440F97
:10033000551F6A95E2F7BA01622B62BB089522B39A
:1003400081E090E0AC0102C0440F551F6A95E2F7CE
:10035000BA016095622362BB0895843409F44EC0EB
:10036000853440F4823431F18334B0F5813409F0BE
:1003700057C00EC08236F1F0833620F4813609F082
:100380004FC006C0833641F1843609F049C036C0FB
:1003900029B381E090E0062E02C0880F991F0A94CD
:1003A000E2F730E08223932302C0959587956A9502
:1003B000E2F7089526B381E090E0062E02C0880F90
:1003C000991F0A94E2F730E08223932302C09595A7
:1003D00087956A95E2F7089523B381E090E0062EB1
:1003E00002C0880F991F0A94E2F730E0822393231A
:1003F00002C0959587956A95E2F7089520B381E04C
:1004000090E0062E02C0880F991F0A94E2F730E0B0
:100410008223932302C0959587956A95E2F7089504
:1004200080E00895843409F43DC0853440F482347A
:10043000F9F0833450F5813409F040C00CC08236A5
:10044000B9F0833618F48136C9F505C08336E9F072
:100450008436A1F527C02BB381E090E0AC0102C047
:10046000440F551F6A95E2F7BA0162276BBB0895E6
:1004700028B381E090E0AC0102C0440F551F6A959B
:10048000E2F7BA01622768BB089525B381E090E0E6
:10049000AC0102C0440F551F6A95E2F7BA0162270A
:1004A00065BB089522B381E090E0AC0102C0440F27
:1004B000551F6A95E2F7BA01622762BB089584343A
:1004C000D9F0853438F4823499F0833498F4813447
:1004D000A1F40CC0823661F0833618F4813669F4D9
:1004E00005C0833639F0843641F406C06ABB0895EE
:1004F00067BB089564BB089561BB08958434D9F047
:10050000853438F4823499F0833498F48134A1F43A
:100510000CC0823661F0833618F4813669F405C068
:10052000833639F0843641F406C06BBB089568BB4E
:10053000089565BB089562BB08958434D9F085346D
:1005400038F4823499F0833498F48134A9F40CC0DF
:10055000823661F0833618F4813671F405C0833633
:1005600039F0843649F406C089B3089586B30895F6
:1005700083B3089580B3089580E00895843409F426
:1005800071C0853448F4823499F1833408F04DC049
:10059000813409F083C00FC0823651F1833620F4D4
:1005A000813609F07BC007C0833609F43EC084362B
:1005B00009F074C057C0413069F42BB381E090E07A
:1005C000AC0102C0440F551F6A95E2F7BA01622BD5
:1005D0006BBB08952BB381E090E0AC0102C0440FE7
:1005E000551F6A95E2F7BA01609562236BBB0895C7
:1005F000413069F428B381E090E0AC0102C0440FBF
:10060000551F6A95E2F7BA01622B68BB089528B3BB
:1006100081E090E0AC0102C0440F551F6A95E2F7FB
:10062000BA016095622368BB0895413069F425B32F
:1006300081E090E0AC0102C0440F551F6A95E2F7DB
:10064000BA01622B65BB089525B381E090E0AC014F
:1006500002C0440F551F6A95E2F7BA016095622304
:1006600065BB0895413069F422B381E090E0AC01AC
:1006700002C0440F551F6A95E2F7BA01622B62BBB4
:10068000089522B381E090E0AC0102C0440F551FF1
:100690006A95E2F7BA016095622362BB08956F70B4
:1006A000843451F1853438F48234C1F08334E8F471
:1006B000813441F50CC0823689F0833618F48136D6
:1006C00009F505C0833689F08436E1F415C08BB393
:1006D000807F8BBB8BB3682B6BBB089588B3807F07
:1006E00088BB88B3682B68BB089585B3807F85BBC2
:1006F00085B3682B65BB089582B3807F82BB82B3CC
:10070000682B62BB08956295607F843451F1853413
:1007100038F48234C1F08334E8F4813441F50CC0FC
:10072000823689F0833618F4813609F505C08336A0
:1007300089F08436E1F415C08BB38F708BBB8BB31B
:10074000682B6BBB089588B38F7088BB88B3682B08
:1007500068BB089585B38F7085BB85B3682B65BB77
:10076000089582B38F7082BB82B3682B62BB0895F9
:1007700041E00E948B00089541E00E941C01089511
:1007800040E00E941C0108950E94120208950E94F8
:10079000AD01089584E460E00E94B80384E461E060
:1007A0000E94B80384E462E00E94B80384E463E03A
:1007B0000E94B80384E464E00E94B80384E465E026
:1007C0000E94B8030E9479000E9462058FEF94E3B3
:1007D000ACE081509040A040E1F700C00000C0E0D4
:1007E0008FEF0E94760590E0419780339105C0F726
:1007F000865D9F4FFC01EE0FFF1F0590F491E02DE9
:10080000099484E460E00E94C703813039F084E4F5
:1008100060E00E94C703882319F003C0C1E001C053
:10082000C0E08C2F0E947605DBCF84E461E00E945B
:10083000C703813039F084E461E00E94C703882354
:1008400019F003C0C1E001C0C0E08C2F0E94760502
:10085000C7CF84E462E00E94C703813039F084E4AA
:1008600062E00E94C703882319F003C0C1E001C001
:10087000C0E08C2F0E947605B3CF84E463E00E9431
:10088000C703813039F084E463E00E94C703882302
:1008900019F003C0C1E001C0C0E08C2F0E947605B2
:1008A0009FCF84E464E00E94C703813039F084E480
:1008B00064E00E94C703882319F003C0C1E001C0AF
:1008C000C0E08C2F0E9476058BCF84E465E00E9407
:1008D000C703813039F084E465E00E94C7038823B0
:1008E00019F003C0C1E001C0C0E08C2F0E94760562
:1008F00077CF84E460E00E94BC0372CF84E460E0C0
:100900000E94C0036DCF84E461E00E94BC0368CF05
:1009100084E461E00E94C00363CF84E462E00E944B
:10092000BC035ECF84E462E00E94C00359CF84E43C
:1009300063E00E94BC0354CF84E463E00E94C003E0
:100940004FCF84E464E00E94BC034ACF84E464E0B7
:100950000E94C00345CF0E94850584E465E00E94A3
:10096000BC033ECF0E947B0584E465E00E94C00387
:1009700037CF8FEF0E94760590E0909361008093CF
:1009800060002ECF1F920F920FB60F9211242F935B
:100990003F934F935F936F937F938F939F93AF9307
:1009A000BF93EF93FF93809165008F5F8093650005
:1009B000809165008A3008F45CC0109265000E9446
:1009C0007F00BC0180E090E00E94D50520E030E08F
:1009D00040E85EE30E943B060E94A905DC01CB01D2
:1009E00090936400809363002091600030916100D7
:1009F00080916300909164002F5F3F4F82179307AF
:100A000040F084E465E00E94BC0381E080936200D2
:100A100030C020916000309161008091630090911E
:100A20006400215030402817390738F084E465E02D
:100A30000E94C003109262001CC02091630030919C
:100A4000640080916000909161002817390789F453
:100A500080916200813029F484E465E00E94BC0347
:100A600008C080916200882321F484E465E00E943C
:100A7000C003FF91EF91BF91AF919F918F917F91B3
:100A80006F915F914F913F912F910F900FBE0F90FB
:100A90001F90189582E464E041E00E948B0082E49C
:100AA00065E041E00E948B0082E467E041E00E9443
:100AB0008B006C9A689A6E9A82E464E041E00E942E
:100AC0001C0108956E9A82E466E041E00E948B006A
:100AD0000895CF93C82F82E464E040E00E941C0197
:100AE000CFB9779BFECF8FB1CF9108958FB9779B08
:100AF000FECF8FB1089583B78E7F83BF83B78D7F7D
:100B000083BF83B78B7F83BF08958EE48CBF83B789
:100B1000886083BF83B78F7B83BF83B7816083BFC8
:100B200083B78D7F83BF83B7846083BF789489B791
:100B3000826089BF089582B5886082BD85B5846072
:100B400085BD85B5816085BD789489B7806489BF8E
:100B5000089570D088F09F5790F0B92F9927B7511A
:100B6000A0F0D1F0660F771F881F991F1AF0BA9571
:100B7000C9F712C0B13081F077D0B1E0089574C0E8
:100B8000672F782F8827B85F39F0B93FCCF3869567
:100B900077956795B395D9F73EF4909580957095C4
:100BA00061957F4F8F4F9F4F0895E89409C097FB41
:100BB0003EF490958095709561957F4F8F4F9F4F34
:100BC0009923A9F0F92F96E9BB279395F695879578
:100BD00077956795B795F111F8CFFAF4BB0F11F43B
:100BE00060FF1BC06F5F7F4F8F4F9F4F16C08823E2
:100BF00011F096E911C0772321F09EE8872F762F18
:100C000005C0662371F096E8862F70E060E02AF058
:100C10009A95660F771F881FDAF7880F9695879544
:100C200097F9089557FD9058440F551F59F05F3FAD
:100C300071F04795880F97FB991F61F09F3F79F0FE
:100C400087950895121613061406551FF2CF469580
:100C5000F1DF08C0161617061806991FF1CF869502
:100C60007105610508940895E894BB2766277727E6
:100C7000CB0197F908950BD078C069D028F06ED0D9
:100C800018F0952309F05AC05FC01124EECFCADFD7
:100C9000A0F3959FD1F3950F50E0551F629FF0018F
:100CA000729FBB27F00DB11D639FAA27F00DB11DE8
:100CB000AA1F649F6627B00DA11D661F829F222771
:100CC000B00DA11D621F739FB00DA11D621F839FF8
:100CD000A00D611D221F749F3327A00D611D231FCE
:100CE000849F600D211D822F762F6A2F11249F571C
:100CF00050408AF0E1F088234AF0EE0FFF1FBB1F3F
:100D0000661F771F881F91505040A9F79E3F5105DD
:100D100070F014C0AACF5F3FECF3983EDCF38695E9
:100D200077956795B795F795E7959F5FC1F7FE2B88
:100D3000880F911D9695879597F9089597F99F6764
:100D400080E870E060E008959FEF80EC0895002453
:100D50000A941616170618060906089500240A9420
:100D600012161306140605060895092E0394000CA6
:100D700011F4882352F0BB0F40F4BF2B11F460FF35
:100D800004C06F5F7F4F8F4F9F4F0895F894FFCF40
:020D9000180049
:00000001FF
