S00E00004D61737465722E73726563AA
S11300000C942A000C9447000C9447000C9447006D
S11300100C9447000C9447000C9447000C94470040
S11300200C9447000C9447000C940D0B0C9447005F
S11300300C9447000C9447000C9447000C94470020
S11300400C9447000C9447000C9447000C94470010
S11300500C94470011241FBECFE5D8E0DEBFCDBF0E
S113006012E0A0E6B0E0E6EEF8E102C005900D92E1
S1130070A63EB107D9F712E0A6EEB2E001C01D9288
S1130080A93EB107E1F70E9433050C94710C0C945E
S113009000003E9A3F9A379A329A319A0895369AD6
S11300A03699FECF349A84B190E045B1342F20E0E4
S11300B0822B932B0895843409F471C0853448F459
S11300C0823499F1833408F04DC0813409F083C03F
S11300D00FC0823651F1833620F4813609F07BC09B
S11300E007C0833609F43EC0843609F074C057C093
S11300F0413069F42AB381E090E0AC0102C0440FBE
S1130100551F6A95E2F7BA01622B6ABB08952AB3B8
S113011081E090E0AC0102C0440F551F6A95E2F7FC
S1130120BA01609562236ABB0895413069F427B32C
S113013081E090E0AC0102C0440F551F6A95E2F7DC
S1130140BA01622B67BB089527B381E090E0AC014C
S113015002C0440F551F6A95E2F7BA016095622305
S113016067BB0895413069F424B381E090E0AC01A9
S113017002C0440F551F6A95E2F7BA01622B64BBB3
S1130180089524B381E090E0AC0102C0440F551FF0
S11301906A95E2F7BA016095622364BB0895413021
S11301A069F421B381E090E0AC0102C0440F551F13
S11301B06A95E2F7BA01622B61BB089521B381E02D
S11301C090E0AC0102C0440F551F6A95E2F7BA01F2
S11301D06095622361BB0895843409F471C0853449
S11301E048F4823499F1833408F04DC0813409F025
S11301F083C00FC0823651F1833620F4813609F072
S11302007BC007C0833609F43EC0843609F074C04D
S113021057C0413069F42BB381E090E0AC0102C0D7
S1130220440F551F6A95E2F7BA01622B6BBB089520
S11302302BB381E090E0AC0102C0440F551F6A95D6
S1130240E2F7BA01609562236BBB0895413069F40B
S113025028B381E090E0AC0102C0440F551F6A95B9
S1130260E2F7BA01622B68BB089528B381E090E0FD
S1130270AC0102C0440F551F6A95E2F7BA016095BC
S1130280622368BB0895413069F425B381E090E0AE
S1130290AC0102C0440F551F6A95E2F7BA01622B04
S11302A065BB089525B381E090E0AC0102C0440F22
S11302B0551F6A95E2F7BA016095622365BB0895FC
S11302C0413069F422B381E090E0AC0102C0440FF4
S11302D0551F6A95E2F7BA01622B62BB089522B3F7
S11302E081E090E0AC0102C0440F551F6A95E2F72B
S11302F0BA016095622362BB0895843409F44EC048
S1130300853440F4823431F18334B0F5813409F01A
S113031057C00EC08236F1F0833620F4813609F0DE
S11303204FC006C0833641F1843609F049C036C057
S113033029B381E090E0062E02C0880F991F0A9429
S1130340E2F730E08223932302C0959587956A955E
S1130350E2F7089526B381E090E0062E02C0880FEC
S1130360991F0A94E2F730E08223932302C0959503
S113037087956A95E2F7089523B381E090E0062E0D
S113038002C0880F991F0A94E2F730E08223932376
S113039002C0959587956A95E2F7089520B381E0A8
S11303A090E0062E02C0880F991F0A94E2F730E00D
S11303B08223932302C0959587956A95E2F7089561
S11303C080E00895843409F43DC0853440F48234D7
S11303D0F9F0833450F5813409F040C00CC0823602
S11303E0B9F0833618F48136C9F505C08336E9F0CF
S11303F08436A1F527C02BB381E090E0AC0102C0A4
S1130400440F551F6A95E2F7BA0162276BBB089542
S113041028B381E090E0AC0102C0440F551F6A95F7
S1130420E2F7BA01622768BB089525B381E090E042
S1130430AC0102C0440F551F6A95E2F7BA01622766
S113044065BB089522B381E090E0AC0102C0440F83
S1130450551F6A95E2F7BA01622762BB0895843496
S1130460D9F0853438F4823499F0833498F48134A3
S1130470A1F40CC0823661F0833618F4813669F435
S113048005C0833639F0843641F406C06ABB08954A
S113049067BB089564BB089561BB08958434D9F0A3
S11304A0853438F4823499F0833498F48134A1F497
S11304B00CC0823661F0833618F4813669F405C0C5
S11304C0833639F0843641F406C06BBB089568BBAB
S11304D0089565BB089562BB08958434D9F08534CA
S11304E038F4823499F0833498F48134A9F40CC03C
S11304F0823661F0833618F4813671F405C0833690
S113050039F0843649F406C089B3089586B3089552
S113051083B3089580B3089580E00895843409F482
S113052071C0853448F4823499F1833408F04DC0A5
S1130530813409F083C00FC0823651F1833620F430
S1130540813609F07BC007C0833609F43EC0843687
S113055009F074C057C0413069F42BB381E090E0D6
S1130560AC0102C0440F551F6A95E2F7BA01622B31
S11305706BBB08952BB381E090E0AC0102C0440F43
S1130580551F6A95E2F7BA01609562236BBB089523
S1130590413069F428B381E090E0AC0102C0440F1B
S11305A0551F6A95E2F7BA01622B68BB089528B318
S11305B081E090E0AC0102C0440F551F6A95E2F758
S11305C0BA016095622368BB0895413069F425B38C
S11305D081E090E0AC0102C0440F551F6A95E2F738
S11305E0BA01622B65BB089525B381E090E0AC01AC
S11305F002C0440F551F6A95E2F7BA016095622361
S113060065BB0895413069F422B381E090E0AC0108
S113061002C0440F551F6A95E2F7BA01622B62BB10
S1130620089522B381E090E0AC0102C0440F551F4D
S11306306A95E2F7BA016095622362BB08956F7010
S1130640843451F1853438F48234C1F08334E8F4CD
S1130650813441F50CC0823689F0833618F4813632
S113066009F505C0833689F08436E1F415C08BB3EF
S1130670807F8BBB8BB3682B6BBB089588B3807F63
S113068088BB88B3682B68BB089585B3807F85BB1E
S113069085B3682B65BB089582B3807F82BB82B328
S11306A0682B62BB08956295607F843451F1853470
S11306B038F48234C1F08334E8F4813441F50CC059
S11306C0823689F0833618F4813609F505C08336FD
S11306D089F08436E1F415C08BB38F708BBB8BB378
S11306E0682B6BBB089588B38F7088BB88B3682B65
S11306F068BB089585B38F7085BB85B3682B65BBD4
S1130700089582B38F7082BB82B3682B62BB089555
S11307108EBB9FBB6DBBE29AE19AE299FECF08952E
S11307208EBB9FBBE09A8DB30895CF93C82F60E032
S113073041E00E945B008C2F61E041E00E945B007D
S11307408C2F62E041E00E945B008C2F63E041E06B
S11307500E945B008C2F64E040E00E945B008C2FC1
S113076065E040E00E945B008C2F66E040E00E9460
S11307705B008C2F67E040E00E945B008C2F64E0FC
S113078041E00E948E028C2F65E041E00E948E02BF
S11307908C2F66E041E00E948E028C2F67E041E0DE
S11307A00E948E02CF910895FF920F931F93CF93CF
S11307B0DF93CDB7DEB760970FB6F894DEBF0FBEF8
S11307C0CDBF082FDE011196E0E6F0E080E1019054
S11307D00D928150E1F7FF24802F60E041E00E94F8
S11307E0EC00802F61E041E00E94EC00802F62E089
S11307F041E00E94EC00802F63E041E00E94EC00A5
S1130800802F6F2D40E00E94EC0010E0612F6C5FA0
S1130810802F0E947D01882361F4EF2DF0E0EE0F1C
S1130820FF1FEE0FFF1FE10FF11DEC0FFD1F818174
S113083004C01F5F143051F70CC060960FB6F894D3
S1130840DEBF0FBECDBFDF91CF911F910F91FF90FF
S11308500895F39484E0F81609F0BECF8FEFEDCF3E
S113086082E460E041E00E94EC008FE99FE00197A0
S1130870F1F700C0000082E460E040E00E94EC0078
S11308808FE99FE00197F1F700C000000895CF932E
S1130890C82F682F62956F7081E40E94530382E42D
S11308A061E040E00E94EC000E94300481E46C2F7F
S11308B00E94530382E461E040E00E94EC000E9445
S11308C030048FEC97E00197F1F700C00000CF915E
S11308D008958FEF91EEA4E081509040A040E1F79D
S11308E000C0000081E464E041E00E945B0081E418
S11308F065E041E00E945B0081E466E041E00E9423
S11309005B0081E467E041E00E945B0082E460E018
S113091041E00E945B0082E462E041E00E945B00EF
S113092082E461E041E00E945B0082E462E040E036
S11309300E94EC0082E00E944704AFE1BEE41197FC
S1130940F1F700C0000088E20E9447048FEC97E0B2
S11309500197F1F700C000008EE00E944704AFEC5D
S1130960B7E01197F1F700C0000081E00E9447044E
S11309708FE19EE40197F1F700C0000086E00E9439
S11309804704AFECB7E01197F1F700C000000895F9
S1130990CF93C82F682F62956F7081E40E94530330
S11309A082E461E041E00E94EC000E94300481E4B2
S11309B06C2F0E94530382E461E041E00E94EC004A
S11309C00E9430048FEC97E00197F1F700C000001B
S11309D0CF910895CF93DF93EC018881882331F080
S11309E021960E94C80489918823D9F7DF91CF9179
S11309F0089581E00E9447048FE19EE40197F1F796
S1130A0000C000000895282F2150223070F4613175
S1130A1070F4662371F0813019F4962F91580AC04E
S1130A20823041F4962F915405C090E803C090E8B9
S1130A3001C090E8892F0E9447048FEC97E001974A
S1130A40F1F700C00000089541E00E945B000895A2
S1130A5041E00E94EC00089540E00E94EC000895FB
S1130A600E94E2010895CF93DF93CDB7DEB72897B4
S1130A700FB6F894DEBF0FBECDBF83E460E00E94E2
S1130A80240583E461E00E94240583E462E00E947B
S1130A9024050E94690484E40E9495030E94120CB8
S1130AA00E94490080E790E00E94EA0482E061E04D
S1130AB00E94030581E890E00E94EA048FEF99E622
S1130AC0A8E181509040A040E1F700C000000E94DE
S1130AD0F9048FEF89838A838B838C8380E290E08F
S1130AE00E9490038F3F09F0DAC080E390E00E94F7
S1130AF090038F3F09F0D3C08DE890E00E94EA0490
S1130B0082E061E00E94030587E990E00E94EA0424
S1130B108FEF99E6A8E181509040A040E1F700C032
S1130B2000000E94F90482EA90E00E94EA0482E054
S1130B3061E00E94030581EB90E00E94EA0401E277
S1130B4010E0FF24FA94F092870284E40E94D40314
S1130B50809387028F3FC9F30E94C8048FE79AE10C
S1130B60A6E081509040A040E1F700C00000602F53
S1130B70655182E00E9403058AE20E94C804C8010C
S1130B80609187020E9488038FEF90E7A2E0815072
S1130B909040A040E1F700C000000F5F1F4F0532F6
S1130BA0110589F680E290E060E00E9488038FEFEF
S1130BB090E7A2E081509040A040E1F700C000001F
S1130BC00E94F9048DEB90E00E94EA048FEF94E315
S1130BD0ACE081509040A040E1F700C000000E94CA
S1130BE0F90488EC90E00E94EA0482E061E00E944B
S1130BF0030587ED90E00E94EA0401E310E0FF247E
S1130C00FA94F092870284E40E94D40380938702CA
S1130C108F3FC9F30E94C8048FE79AE1A6E0815090
S1130C209040A040E1F700C00000602F655282E0D0
S1130C300E9403058AE20E94C804C80160918702E9
S1130C400E9488038FEF90E7A2E081509040A0407B
S1130C50E1F700C000000F5F1F4F0533110589F64F
S1130C6080E390E060E00E9488038FEF90E7A2E0C9
S1130C7081509040A040E1F700C000000E94F904B8
S1130C808DEB90E00E94EA048FEF94E3ACE0815096
S1130C909040A040E1F700C000000E94F9049FEFDB
S1130CA09F83AFEFA8871E826624EE240F2EF3E005
S1130CB0DF2EF02DC62C8FEF809387028091E60201
S1130CC0813061F5FF24FA9401E00E94430C1092F4
S1130CD0E8021092E7021092E602F0928702009373
S1130CE0880283E4602F0E942C0583E462E00E9462
S1130CF02C050E94F90483EE90E00E94EA048FEF31
S1130D0099E6A8E181509040A040E1F700C00000BE
S1130D108091E6028130C9F2CC2406C0CC2009F0CF
S1130D2060C402C0CC240CC00F2EF9E96F2EF1E090
S1130D307F2EF02D0F2EF7ED4F2EF0E05F2EF02DCD
S1130D409D81913029F50E94F90483EF90E00E947F
S1130D50EA0482E061E00E94030581E091E00E94E0
S1130D60EA0483E460E00E9428058FEF93E2A4EF95
S1130D7081509040A040E1F700C0000083E460E0AF
S1130D800E942C051D82EE240F2EF3E0DF2EF02DA1
S1130D908FEF809387020E94F9048DE091E00E9416
S1130DA0EA0482E061E00E9403058AE191E00E9486
S1130DB0EA0484E40E94D403809387028F3FC9F33A
S1130DC0982F91539230A8F00E94F9048BE291E09D
S1130DD00E94EA048FEF99E6A8E181509040A04078
S1130DE0E1F700C000000E94F9048FEF80938702AE
S1130DF06FC1813341F0823309F06AC192E0C916B0
S1130E0009F0B4C0EEC3A1E0CA1609F4EAC3CC24C5
S1130E10CA940F2EFCE0AF2EF02DC09287020E94E0
S1130E20F90487E391E00E94EA0482E061E00E9411
S1130E30030582E491E00E94EA048E010F5F1F4FD4
S1130E40FA2C84E40E94D403F80180838F3FC9F311
S1130E500E94C8048FE79AE1A6E081509040A04028
S1130E60E1F700C0000082E06F2D0E9403058AE2D2
S1130E700E94C804F3940F5F1F4F90E1F91609F71D
S1130E8081E290E00E94900399818917A1F582E2A2
S1130E9090E00E9490039A81891769F583E290E0BB
S1130EA00E9490039B81891731F584E290E00E94AF
S1130EB090039C818917F9F40E94F9048EE491E06F
S1130EC00E94EA0483E661E00E9428058FEF94E320
S1130ED0ACE081509040A040E1F700C000000E94C7
S1130EE04D0C0E94F904CC24C394EE240F2EF3E09D
S1130EF0DF2EF02D76C3E394DA940E94F9048DE595
S1130F0091E00E94EA0482E061E00E9403058CE61D
S1130F1091E00E94EA048D2D805D0E94C8048FEF49
S1130F2094E3ACE081509040A040E1F700C00000A1
S1130F3092E09E1508F071CF0E94F9048BE791E0CE
S1130F400E94EA0482E061E00E9403058CE891E0DB
S1130F500E94EA048FEF99E6A8E181509040A040F6
S1130F60E1F700C0000091E09D83DCCEAA24AA949E
S1130F700F2EFCE08F2EF02D0F2EFFEA2F2EF1E026
S1130F803F2EF02DA09287020E94F904C3010E9413
S1130F90EA0482E061E00E940305C2010E94EA04BF
S1130FA08E010F5F1F4FF82C84E40E94D403D801F4
S1130FB08C938F3FC9F30E94C8048FE79AE1A6E09F
S1130FC081509040A040E1F700C0000082E06F2D06
S1130FD00E9403058AE20E94C804F3940F5F1F4F26
S1130FE090E1F91609F781E390E00E94900399815A
S1130FF08917A9F582E390E00E9490039A818917EA
S113100071F583E390E00E9490039B81891739F581
S113101084E390E00E9490039C81891701F50E946B
S1131020F90484EA91E00E94EA0483E662E00E9403
S113103028058FEF94E3ACE081509040A040E1F7A5
S113104000C000000E944D0C0E94F904CC24689456
S1131050C1F8EE240F2EF3E0DF2EF02DC2C2E3948C
S1131060DA940E94F904C1010E94EA0482E061E07A
S11310700E9403058EEB91E00E94EA048D2D805DB1
S11310800E94C8048FEF94E3ACE081509040A040EC
S1131090E1F700C0000092E09E1508F073CF0E94B3
S11310A0F9048DEC91E00E94EA0482E061E00E9480
S11310B003058BED91E00E94EA048FEF99E6A8E125
S11310C081509040A040E1F700C0000091E09D8372
S11310D0CC2009F427CE85C2853009F48EC1863030
S11310E070F4823009F4B8C0833018F48130A1F769
S11310F020C0833009F46BC1843071F773C1883028
S113110009F412C1893030F4863009F481C1873082
S113111019F789C1893009F491C18A30E9F6AE81A1
S1131120AA2309F05AC28091E602882309F491C1E6
S113113054C28FEF809387020F2EF9E0AF2EF2E0B6
S1131140BF2EF02D0F2EF9EF8F2EF1E09F2EF02DF4
S11311500F2EF6E0FF2EF02D0E94F90488EE91E0A8
S11311600E94EA0482E061E00E940305B1E0CB162C
S113117021F4C4010E94EA0406C0E2E0CE1619F488
S1131180C5010E94EA048091E7029091E802FBE025
S1131190883B9F0718F021E0C21659F08091E702BE
S11311A09091E802ABE0883B9A0738F0B2E0CB16A6
S11311B021F481E08093E60207C084E40E94D40312
S11311C0809387028F3FF9F28FEF90E7A2E081507E
S11311D09040A040E1F700C0000080918702813375
S11311E021F493E0909388022BC0823321F4A4E08D
S11311F0A093880225C0833321F4B5E0B09388021C
S11312001FC0843369F4E2E0CE1619F4F092880228
S113121017C0F1E0CF1621F482E08093880210C059
S11312208F3FA1F00E94F904C8010E94EA048FEFE5
S113123094E3ACE081509040A040E1F700C000008E
S1131240809187028153843008F4DFC18091E602E3
S1131250882309F481CFD9C18FEF80938702FF24BB
S11312606894F3F80F2EF7E0AF2EF02D0F2EF6E072
S11312708F2EF02D0E94F90487E292E00E94EA0486
S113128082E061E00E94030585E392E00E94EA04A3
S11312908091E7029091E802ABE0883B9A0718F04E
S11312A0B1E0CB1659F08091E7029091E802EBE0AF
S11312B0883B9E0738F0F2E0CF1621F481E080935A
S11312C0E60207C084E40E94D403809387028F3F20
S11312D0F9F28FE79AE1A6E081509040A040E1F74F
S11312E000C0000080918702813319F48092880243
S11312F00FC0823319F4A09288020AC0833319F410
S1131300F092880205C0843319F481E08093880246
S1131310809187028153843008F477C18091E6027A
S1131320882309F4A7CF71C18FEF809387020E94AD
S1131330F904C3010E94EA0482E061E00E9403050B
S113134082E592E00E94EA048091E7029091E8022B
S1131350ABE0893B9A0738F0B1E0CB1621F481E089
S11313608093E60207C084E40E94D403809387023A
S11313708F3F51F38FE79AE1A6E081509040A0405F
S1131380E1F700C0000080918702813321F48AE0F4
S1131390809388023AC1823321F489E080938802E1
S11313A034C1833321F482E0809388022EC10E94E9
S11313B0F90482E692E00E94EA048FEF94E3ACE041
S11313C081509040A040E1F700C000001EC18FEFA3
S11313D08093870283E06C2D0E94240B81E080932C
S11313E0880213C18FEF8093870284E06C2D0E94E2
S11313F0240B81E08093880208C18FEF80938702D9
S113140085E06C2D0E94240B81E080938802FDC04E
S11314108FEF8093870286E06C2D0E94240B81E07D
S113142080938802F2C08FEF8093870287E06C2D4F
S11314300E94240B82E080938802E7C08FEF8093A0
S1131440870289E06C2D0E94240B88E08093880237
S1131450DCC0AA24AA94A09287020E94F904C201C3
S11314600E94EA048FED0E94C80483E40E94C80429
S113147081E06BE00E9403058091E7029091E8020D
S1131480ABE0893B9A0738F0B1E0CB1621F481E058
S11314908093E60207C084E40E94D4038093870209
S11314A08F3F51F38FE79AE1A6E081509040A0402E
S11314B0E1F700C000008091E602813009F48DC09C
S11314C080918702982F90539A3078F00E94F90403
S11314D0C8010E94EA048FEF94E3ACE0815090408D
S11314E0A040E1F700C0000008C00E94C804809139
S11314F0870280538887A09287028091E7029091A7
S1131500E802ABE0893B9A0738F0B1E0CB1621F44E
S113151081E08093E60207C084E40E94D4038093B0
S113152087028F3F51F38FE79AE1A6E08150904004
S1131530A040E1F700C000008091E602813009F488
S11315404CC080918702982F90539A3078F00E9473
S1131550F904C8010E94EA048FEF94E3ACE08150DF
S11315609040A040E1F700C0000008C00E94C804F9
S11315708091870280538F83A09287028885880F89
S1131580982F990F990F890FFF80F80E80E40E941D
S1131590310C8FEF91EEA4E081509040A040E1F730
S11315A000C000008F2D0E94310C0E94F904C1017B
S11315B00E94EA048FEF94E3ACE081509040A04095
S11315C0E1F700C00000FF2039F48091E60288238F
S11315D009F441CFFE8201C0FE8288E08093880234
S11315E014C00F2EF6E46F2EF2E07F2EF02D0F2E96
S11315F0FFE64F2EF2E05F2EF02D0F2EFCE72F2E8C
S1131600F2E03F2EF02D0AE112E0809188029091E1
S1131610E602913009F44FCB5FCD1F920F920FB6C3
S11316200F9211248F939F938091E7029091E80287
S113163001969093E8028093E7029F918F910F9017
S11316400FBE0F901F9018953F924F925F926F922A
S11316507F928F929F92AF92BF92CF92DF92EF923E
S1131660FF920F931F93CF93DF93C82F8FEF809335
S1131670870200E010E0D0E00F2EFBE96F2EF2E0CD
S11316807F2EF02D0F2EF3E15F2EF02D0F2EF5E1BE
S11316904F2EF02D0F2EF4E13F2EF02D0F2EF4ECF3
S11316A0CF2EF2E0DF2EF02D0F2EF1EC8F2EF2E094
S11316B09F2EF02D0F2EF8ECEF2EF2E0FF2EF02DE2
S11316C00F2EF9EDAF2EF2E0BF2EF02DC53019F13B
S11316D0C63030F4C33059F0C43009F042C011C0F0
S11316E0C73061F1C73000F1C930D9F531C00E946B
S11316F0F90489E892E00E94EA0401E311E2D1E1ED
S113170030C00E94F90482E992E00E94EA0402E3F4
S113171012E2D2E126C00E94F904C3010E94EA0445
S113172003E313E2D52D1DC00E94F90484EA92E07C
S11317300E94EA0404E314E2D32D13C00E94F904C6
S11317408DEA92E00E94EA0405E315E2D42D09C073
S11317500E94F90484EB92E00E94EA0406E316E294
S1131760D6E18D2F0E94310C8FE799EAA3E08150D6
S11317709040A040E1F700C000008FEF0E94310CC0
S1131780813021F4C4010E94EA0403C0C6010E940E
S1131790EA0482E061E00E940305C7010E94EA04B2
S11317A084E490E00E94D403809387028F3FC1F3C6
S11317B08FEF91EEA4E081509040A040E1F700C08B
S11317C0000080918702813321F4812F0E94310C23
S11317D011C0823321F4802F0E94310C0BC083335B
S11317E021F481E08093880205C00E94F904C501B8
S11317F00E94EA04809187028153833008F066CF07
S1131800DF91CF911F910F91FF90EF90DF90CF90D8
S1131810BF90AF909F908F907F906F905F904F900C
S11318203F90089582E464E041E00E945B0082E41A
S113183065E041E00E945B0082E467E041E00E94D1
S11318405B006C9A689A6E9A82E464E041E00E94BC
S1131850EC0008956E9A82E466E041E00E945B0029
S11318600895CF93C82F82E464E040E00E94EC0026
S1131870CFB9779BFECF8FB1CF9108958FB9779B66
S1131880FECF8FB1089583B78E7F83BF83B78D7FDB
S113189083BF83B78B7F83BF08958EE48CBF83B7E8
S11318A0886083BF83B78F7B83BF83B7816083BF27
S11318B083B78D7F83BF83B7846083BF789489B7F0
S11318C0826089BF089582B5886082BD85B58460D1
S11318D085BD85B5816085BD789489B7806489BFED
S10918E00895F894FFCF07
S11318E63738392D3435362A3132332F41303D2BB2
S11318F657656C636F6D6520746F20536D617274E8
S113190600486F6D652053797374656D004C6F677D
S1131916696E20466F720046697273742074696D2D
S113192665005365742041646D696E20506173735C
S11319360041646D696E20706173733A005061737F
S11319467320736176656400536574204775657307
S11319567420506173730047756573742050617306
S1131966733A0053657373696F6E2054696D654FDE
S11319767574004C6F67696E20426C6F636B6564A7
S11319860057616974203130205365630053656CD8
S1131996656374206D6F64653A00313A41646D691C
S11319A66E2020323A47756573740057726F6E67FE
S11319B620696E7075740041646D696E204D6F64A4
S11319C6650041646D696E20506173733A00526913
S11319D66768742050617373776F72640057726F0F
S11319E66E672070617373776F72640074726965D1
S11319F67320616C6C6F7765643A004E6F20747265
S1131A0669657320616C6C6F77656400426C6F6303
S1131A166B6564204D6F6465004775657374204D6E
S1131A266F64650052696768742070617373005748
S1131A36726F6E672050617373776F7264005472AD
S1131A4669657320416C6C6F7765643A004E6F204C
S1131A565472696573204C65667400426C6F636BDF
S1131A666564206D6F646500312D526F6F6D312092
S1131A7620322D526F6F6D3200332D526F6F6D33DE
S1131A862020342D4D4F524500332D526F6F6D3348
S1131A962020342D526F6F6D340077726F6E67207D
S1131AA6696E7075742100312D524F4F4D342020CC
S1131AB6322D545600332D41697220436F6E642EC5
S1131AC6342D52657400312D5365742054656D7040
S1131AD62E00322D436F6E74726F6C20332D526557
S1131AE6740057726F6E6720696E707574210053A7
S1131AF665742054656D702E3A5F5F0054656D7091
S1131B062E2053656E7400FF01526F6F6D312053A2
S1131B163A00526F6F6D3220533A00526F6F6D3335
S1131B2620533A00526F6F6D3420533A00545620B6
S1131B3620533A0041697220436F6E642E20533A53
S1131B46004F4E004F464600312D4F4E20322D4F4A
S1131B56464620332D5265740077726F6E6720698E
S1091B666E7075740000AE
S9030000FC
